:020000040800F2
:1000000078060020B5010008BD010008BF01000806
:10001000C1010008C3010008C5010008000000007C
:10002000000000000000000000000000C701000800
:10003000C901000800000000CB010008A10700086A
:10004000CF010008CF010008CF010008CF01000850
:10005000CF010008CF010008710500080D06000857
:10006000CF010008CF010008CF010008CF01000830
:10007000CF010008CF010008CF010008CF01000820
:10008000CF010008CF010008CF010008CF01000810
:10009000CF010008CF010008CF010008CF01000800
:1000A000CF010008CF010008CF010008CF010008F0
:1000B000CF010008310A0008790A0008CF010008C2
:1000C000CF010008CF010008CF010008CF010008D0
:1000D000CF010008CF010008CF010008CF010008C0
:1000E000CF010008CF010008CF01000800F002F89E
:1000F00000F050F814A696E8000CB244B344DA4578
:1001000001D100F047F8BAE80F000FA696E83000DA
:10011000A5EB040504EB0607AAEB0704A7F101070A
:100120004FEA15154FEA3414A4F10104AC4201D38F
:1001300000F030F813F0010F18BFFB1A43F0010371
:1001400000F001F8DBE71847083700002837000007
:10015000103A24BF78C878C1FAD8520724BF30C8F3
:1001600030C144BF04680C60704700007047000055
:100170000023002400250026103A28BF78C1FBD8B0
:10018000520728BF30C148BF0B6070471FB51FBD65
:1001900010B510BD00F044F81146FFF7F7FF01F06D
:1001A000E7FA00F062F803B4FFF7F2FF03BC00F0D7
:1001B00065F800000948804709480047FEE7FEE768
:1001C000FEE7FEE7FEE7FEE7FEE7FEE7FEE7FEE707
:1001D00004480549054A064B70470000C909000854
:1001E000ED0000087800002078060020780200204A
:1001F0007802002070477047704710B500F008F88B
:10020000006810BD10B5044600F002F8046010BD8F
:100210000048704710000020004870471000002080
:100220007546FFF7F9FFAE4605006946534620F0D4
:100230000700854618B020B5FFF7CAFFBDE820408B
:100240004FF000064FF000074FF000084FF0000B92
:10025000AC46ACE8C009ACE8C009ACE8C009ACE801
:10026000C00921F007018D46704710B50446AFF371
:1002700000802046BDE81040FFF795BF01491820D7
:10028000ABBEFEE7260002007047000080B584B0D8
:100290008DF80F009DF80F002D21019100F028FF2F
:1002A00001999DF80F000822029200F03DF9029A90
:1002B0009DF80F00312100F037F99DF80F002C2137
:1002C0000A2200F031F904B080BD000080B584B08E
:1002D0008DF80F008DF80E109DF80F0000F0E2FF72
:1002E0009DF80F00A62101910022029200F034FE39
:1002F0009DF80F009DF80E1000F0AAFE9DF80F006B
:1003000000F0D0FF01999DF80F00012200F024FEBB
:1003100002999DF80F0000F05FFF8DF80D009DF829
:100320000F0000F0F7FF9DF80D0004B080BD000045
:1003300080B59CB0DDF880C0DDF87CC0DDF878C009
:100340008DF86F001A91199218939DF86F00322161
:10035000FFF7BCFF8DF85A009DF86F003321FFF7BF
:10036000B5FF8DF85B009DF86F003421FFF7AEFFFD
:100370008DF85C009DF86F003521FFF7A7FF8DF821
:100380005D009DF86F003621FFF7A0FF8DF85E003D
:100390009DF86F003721FFF799FF8DF85F009DF8FA
:1003A0005A009DF85B1040EA0120ADF858009DF816
:1003B0005C009DF85D1040EA0120ADF856009DF804
:1003C0005E009DF85F1040EA0120ADF85400BDF9D1
:1003D000580002F0C5FB002200920023C4F2700313
:1003E000019302F027FA48F21F52C5F2EB12029273
:1003F00049F6B863C4F22303039302F041FC02F010
:100400002BF91A990860BDF9560002F0A9FB009A71
:10041000019B02F00FFA029A039B02F031FC02F0FA
:100420001BF919990860BDF9540002F099FB009A74
:10043000019B02F0FFF9029A039B02F021FC02F0FB
:100440000BF9189908601E9807900068059040F213
:100450000400C2F200000C90016804914FF07E503D
:100460000D9003F0A5F81A99096802F0D5FF0499D8
:1004700002460598069202F0CFFF069902F040FF6F
:10048000079B0C9902460D981A601F9A0B921268EE
:1004900009920968089103F08BF81999096802F02C
:1004A000BBFF0899024609980A9202F0B5FF0A9923
:1004B00002F026FF0B9B0C9902460D981A60209AB9
:1004C000119212680F9209680E9103F071F8189951
:1004D000096802F0A1FF0E9902460F98109202F0EF
:1004E0009BFF109902F00CFF119908601A98129066
:1004F00000681E99096803F05BF812990860199862
:10050000139000681F99096803F052F81399086066
:100510001898149000682099096803F049F8149914
:1005200008601CB080BD000080B582B08DF8070067
:100530008DF806108DF805209DF8070000F0B2FE3A
:100540009DF80700A621002200F006FD9DF8070097
:100550009DF8061000F07CFD9DF807009DF8051041
:1005600000F076FD9DF8070000F0D4FE02B080BDDB
:1005700080B582B040F21440C4F201000068C007A8
:10058000002840D0FFE74AF22010C0F20700019097
:10059000FFE70198012805DBFFE7FFE70198013835
:1005A0000190F6E7FFE70120002100F009FC08B9FF
:1005B000FFE7F8E740F20A00C2F20000007868B9ED
:1005C000FFE740F27001C2F200010020087040F223
:1005D0000A01C2F20001012008700BE040F2700134
:1005E000C2F200010020087040F20A01C2F20001CC
:1005F0000870FFE740F21441C4F20101086840F0BE
:1006000001000860FFE702B080BD000080B582B045
:1006100040F21440C4F2010000688007002826D58B
:10062000FFE74AF22010C0F207000190FFE70198AF
:10063000012805DBFFE7FFE7019801380190F6E7A5
:1006400040F27001C2F200010020087000F086FE46
:1006500001F04CF900F0BCF801F07AF940F21441D5
:10066000C4F20101086840F002000860FFE702B030
:1006700080BD000080B500F001F880BD84B000208E
:100680000390029041F20001C4F20201086840F4B4
:1006900080300860FFE741F20000C4F20200006809
:1006A00000F400300290039801300390FFE70299B4
:1006B0000020019039B9FFE70398B0F5A06018BF9A
:1006C00001200190FFE70198C0070028E3D1FFE770
:1006D00041F20000C4F2020000688003002803D544
:1006E000FFE70120029002E000200290FFE702985D
:1006F000012851D1FFE742F20001C4F2020108686B
:1007000040F010000860086820F0070008600868E2
:1007100040F00200086041F20401C4F202010091BD
:100720000868086008680860086840F4806008602D
:10073000086820F47C100860086840F4E81008603D
:1007400041F20001C4F20201086840F080700860C4
:10075000FFE741F20000C4F20200006880010028B7
:1007600001D4FFE7F5E741F20401C4F20201086891
:1007700020F003000860086840F002000860FFE70E
:1007800041F20400C4F20200006800F00C000828E6
:1007900001D0FFE7F4E700E0FFE704B07047000096
:1007A00040F27400C2F2000001680131016000688B
:1007B00042F60001CEF66B61884207D3FFE740F2B4
:1007C0007401C2F2000100200860FFE770470000DA
:1007D00080B582B041F20001C4F20201086840F421
:1007E00080300860FFE741F20000C4F202000068B8
:1007F0008003002801D4FFE7F5E742F20001C4F2CC
:100800000201086840F010000860086820F0070046
:100810000860086840F00200086041F20401C4F278
:100820000201086840F480300860086840F4E01075
:10083000086041F20001C4F20201086840F08070D3
:100840000860FFE741F20000C4F202000068800186
:10085000002801D4FFE7F5E741F20401C4F20201E8
:10086000019108680860086840F4806008600868C2
:100870000860086820F003000860086840F0020083
:100880000860FFE741F20400C4F20200006800F0D3
:100890000C00082801D0FFE7F4E700F003F802B0ED
:1008A00080BD000084B0002003900290019041F2CE
:1008B0000400C4F20200006800F00C0003900398EA
:1008C000009040B1FFE7009804280ED0FFE70098A1
:1008D000082814D056E040F20001C2F2000141F2B3
:1008E0000020C0F27A00086056E040F20001C2F237
:1008F000000141F20020C0F27A0008604CE041F2B1
:100900000400C4F20200016801F470110291006851
:1009100000F4803001900299022000EB9140029097
:10092000019860B9FFE7029840F60011C0F23D015E
:10093000484340F20001C2F20001086021E041F2A8
:100940000400C4F202000068800300280CD5FFE711
:10095000029840F60011C0F23D01484340F2000108
:10096000C2F2000108600BE0029841F20021C0F2DF
:100970007A01484340F20001C2F200010860FFE73B
:10098000FFE709E040F20001C2F2000141F200205D
:10099000C0F27A000860FFE741F20400C4F20200EE
:1009A0000068C0B2010943F62000C0F60000405CB8
:1009B0000390039A40F20001C2F200010868D0409F
:1009C000086004B07047000080B541F20002C4F234
:1009D0000202106840F00100106041F20401C4F20C
:1009E000020108680023CFF6FF0318400860106872
:1009F0004FF6FF73CFF6F66318401060106820F4CE
:100A000080201060086820F4FE00086041F20801B0
:100A1000C4F202014FF41F000860FFF72BFE4EF6F0
:100A20000851CEF200014FF00060086080BD000068
:100A300080B540F21040C4F200000088C007D0B179
:100A4000FFE740F21041C4F20001088820F00100E5
:100A5000088040F27000C2F200000078012803D143
:100A6000FFE701F013F805E001200421002200F067
:100A7000EFF9FFE7FFE780BD80B540F61000C4F254
:100A800000000088C007D0B1FFE740F61001C4F2B3
:100A90000001088820F00100088040F20A00C2F23C
:100AA00000000078012803D1FFE700F0C9FF05E04E
:100AB00001200421002200F0CBF9FFE7FFE780BD11
:100AC00081B08DF803009DF9030000280ED4FFE7E4
:100AD0009DF9031001F01F02012090404A094EF2D7
:100AE0000011CEF2000141F82200FFE701B070478B
:100AF00081B08DF803009DF9030000280ED4FFE7B4
:100B00009DF9031001F01F02012090404A094EF2A6
:100B10000011CEF2000141F82200FFE701B070475A
:100B200081B08DF803009DF9030000280ED4FFE783
:100B30009DF9031001F01F02012090404A094EF276
:100B40000011CEF2000141F82200FFE701B070472A
:100B500082B08DF8070000919DF9070000280AD4A3
:100B6000FFE7009800019DF907104EF20042CEF217
:100B7000000288540BE0009800019DF8071001F076
:100B80000F014EF61452CEF200028854FFE702B075
:100B90007047000082B08DF8070000919DF90700B2
:100BA00000280AD4FFE7009800019DF907104EF2D3
:100BB0000042CEF2000288540BE0009800019DF83C
:100BC000071001F00F014EF61452CEF200028854C5
:100BD000FFE702B07047000082B08DF80700009177
:100BE0009DF9070000280AD4FFE7009800019DF94D
:100BF00007104EF20042CEF2000288540BE000983B
:100C000000019DF8071001F00F014EF61452CEF2CC
:100C100000028854FFE702B07047000080B582B040
:100C20008DF807008DF806109DF807009DF8062046
:100C30004E2100F091F902B080BD000080B582B075
:100C4000019000F023F80090FFE700F01FF80099F2
:100C5000401A01994FF47A725143884201D2FFE75A
:100C6000F3E702B080BD000080B582B0019000F0D3
:100C70000DF80090FFE700F009F80099401A01997B
:100C8000884201D2FFE7F6E702B080BD40F274006F
:100C9000C2F200000068704784B0ADF80E00ADF8F5
:100CA0000C10ADF80A20ADF80830BDF80E00014672
:100CB0000091012808D0FFE70098022812D0FFE732
:100CC000009803281CD029E040F60000C4F201007F
:100CD000019041F21801C4F20201086840F00400DA
:100CE00008601CE040F60040C4F20100019041F2AF
:100CF0001801C4F20201086840F0080008600EE024
:100D000041F20000C4F20100019041F21801C4F266
:100D10000201086840F01000086000E04EE0BDF8F5
:100D20000C00072822DCFFE7BDF80C0081000F2033
:100D300000FA01F20199086890430860BDF80800C4
:100D4000BDF80C10890000FA01F2019908681043FF
:100D50000860BDF80A00BDF80C108900023100FAE5
:100D600001F2019908681043086027E0BDF80C0003
:100D70006FF01F0101EB80020F2000FA02F3019ACD
:100D8000506898435060BDF80800BDF80C2001EB96
:100D9000820100FA01F20199486810434860BDF8E9
:100DA0000A00BDF80C206FF01D0101EB820100FA72
:100DB00001F20199486810434860FFE704B07047AA
:100DC00084B0ADF80C00ADF80A10BDF80A1001208F
:100DD00088400190BDF80C0001460091012808D020
:100DE000FFE70098022811D0FFE7009803281AD0E7
:100DF00026E040F60800C4F20100006801990840AE
:100E0000002818BF01208DF80F001DE040F60840B3
:100E1000C4F20100006801990840002818BF0120B1
:100E20008DF80F0010E041F20800C4F201000068E4
:100E300001990840002818BF01208DF80F0003E039
:100E400000208DF80F00FFE79DF80F0004B07047F9
:100E500084B0ADF80E00ADF80C10ADF80A20BDF866
:100E60000A00012838D1FFE7BDF80E0001460191C4
:100E7000012808D0FFE70198022811D0FFE7019868
:100E800003281AD026E0BDF80C10012000FA01F268
:100E900040F61001C4F201010868104308601AE02E
:100EA000BDF80C10012000FA01F240F61041C4F226
:100EB00001010868104308600DE0BDF80C10012026
:100EC00000FA01F241F21001C4F201010868104376
:100ED000086000E0FFE73DE0BDF80E00014600912C
:100EE000012808D0FFE70098022813D0FFE70098F8
:100EF00003281ED02CE0BDF80C0000F110010120E9
:100F000000FA01F240F61001C4F201010868104332
:100F100008601EE0BDF80C0000F11001012000FA8D
:100F200001F240F61041C4F2010108681043086064
:100F30000FE0BDF80C0000F11001012000FA01F2F1
:100F400041F21001C4F2010108681043086000E09A
:100F5000FFE7FFE704B0704782B08DF807008DF817
:100F600006108DF805209DF80700152833D1FFE7FE
:100F70009DF806009DF80510084345F21041C4F2A3
:100F800000010880FFE745F21440C4F20000008829
:100F90008007002801D4FFE7F5E7FFE745F214409A
:100FA000C4F2000000888007002813D5FFE745F24F
:100FB0001440C4F200000188009145F21841C4F2C7
:100FC00000010988009100888007002801D4FFE70C
:100FD00000E0E3E738E09DF80700162833D1FFE78B
:100FE0009DF806009DF80510084345F61001C4F26F
:100FF00000010880FFE745F61400C4F200000088F5
:101000008007002801D4FFE7F5E7FFE745F6140065
:10101000C4F2000000888007002813D5FFE745F6DA
:101020001400C4F200000188009145F61801C4F2D2
:1010300000010988009100888007002801D4FFE79B
:1010400000E0E3E7FFE7FFE7012002B070470000A0
:1010500081B08DF803008DF802109DF8030015286B
:101060001ED1FFE7FFE745F21440C4F200000088FC
:101070000006002801D4FFE7F5E79DF8020045F2DD
:101080001041C4F200010880FFE745F21440C4F2A9
:10109000000000880006002801D4FFE7F5E723E000
:1010A0009DF8030016281ED1FFE7FFE745F6140060
:1010B000C4F2000000880006002801D4FFE7F5E72D
:1010C0009DF8020045F61001C4F200010880FFE718
:1010D00045F61400C4F2000000880006002801D480
:1010E000FFE7F5E7FFE7FFE7012001B070470000E9
:1010F00080B586B08DF81700ADF8141041F21801D4
:10110000C4F20201086840F0010008609DF8170071
:1011100015282CD1FFE741F21C01C4F20201086836
:1011200040F400100860022003900621032304937A
:101130001A46FFF7B1FD0398049B07211A46FFF7F3
:10114000ABFD45F20441C4F2000108200880BDF85F
:10115000140045F21C41C4F20001088045F2004130
:10116000C4F20001088840F00100088031E09DF8D9
:10117000170016282CD1FFE741F21C01C4F202012E
:10118000086840F480000860022001900A210323CF
:1011900002931A46FFF780FD0198029B0B211A4625
:1011A000FFF77AFD45F60401C4F20001082008802B
:1011B000BDF8140045F61C01C4F20001088045F694
:1011C0000001C4F20001088840F001000880FFE738
:1011D000FFE7012006B080BD81B08DF803008DF8D7
:1011E00002109DF80300152829D1FFE7FFE745F21B
:1011F0001440C4F2000000884006002801D4FFE734
:10120000F5E745F21040C4F2000000888DF80100B7
:101210009DF8020048B1FFE745F20041C4F2000129
:10122000088840F48060088008E045F20041C4F27C
:101230000001088820F480600880FFE72EE09DF818
:101240000300162829D1FFE7FFE745F61400C4F292
:10125000000000884006002801D4FFE7F5E745F6C6
:101260001000C4F2000000888DF801009DF8020013
:1012700048B1FFE745F60001C4F20001088840F4D8
:101280008060088008E045F60001C4F2000108888B
:1012900020F480600880FFE7FFE7FFE79DF801008A
:1012A00001B0704781B08DF803009DF80300152848
:1012B00013D1FFE745F20041C4F20001088840F471
:1012C00080700880FFE745F21440C4F200000088F7
:1012D000C00708B9FFE7F6E718E09DF803001628F5
:1012E00013D1FFE745F60001C4F20001088840F47D
:1012F00080700880FFE745F61400C4F20000008803
:10130000C00708B9FFE7F6E7FFE7FFE7012001B0F4
:101310007047000081B08DF803009DF80300152888
:1013200009D1FFE745F20041C4F20001088840F40A
:10133000007008800EE09DF80300162809D1FFE731
:1013400045F60001C4F20001088840F400700880EE
:10135000FFE7FFE7012001B07047000080B588B0CB
:101360000321009100220792012302931846FFF700
:1013700093FC00990298079AFFF76AFD029B079A6F
:10138000042101911846FFF787FC01990298079AFA
:10139000FFF75EFD0298079B022203921946FFF7B2
:1013A0007BFC0299039A079B40F60C0CC4F2010CDB
:1013B000CDF810C0DCF8000040F00100CCF80000CF
:1013C0000846FFF769FC0499086840F002000860CD
:1013D00040F20041C4F20101086840F003000860D7
:1013E00040F20C41C4F20101086840F001000860BD
:1013F000086840F00200086006200590FFF760FBD7
:1014000007200690FFF75CFB05980799FFF7A0FB04
:1014100006980799FFF79CFB08B080BD80B586B0A1
:101420008DF817008DF816109DF81700082104910B
:1014300000F052FB0A200390FFF716FC9DF81700FE
:101440000C21029100F048FB05200190FFF70CFCF5
:101450009DF817009DF8161001F0F0010C3100F016
:101460003BFB0398FFF700FC9DF817009DF8161052
:1014700001F0F001083100F02FFB1420FFF7F4FB1E
:1014800002999DF8170000F027FB0198FFF7ECFB8D
:1014900002999DF817009DF8162062F3071100F0DD
:1014A0001BFB0398FFF7E0FB04999DF817009DF8DC
:1014B000162062F3071100F00FFB06B080BD00009C
:1014C00080B586B08DF817008DF816109DF81700BE
:1014D0000921049100F000FB0A200390FFF7C4FBF0
:1014E0009DF817000D21029100F0F6FA05200190F9
:1014F000FFF7BAFB9DF817009DF8161001F0F001F8
:101500000D3100F0E9FA0398FFF7AEFB9DF81700E4
:101510009DF8161001F0F001093100F0DDFA1420F9
:10152000FFF7A2FB02999DF8170000F0D5FA019889
:10153000FFF79AFB02999DF817009DF8162062F3B9
:10154000071100F0C9FA0398FFF78EFB04999DF884
:1015500017009DF8162062F3071100F0BDFA06B0DF
:1015600080BD000080B58AB08DF827009DF8270067
:101570002D21FFF7BDFD1420FFF760FB9DF827002C
:101580000821039100F0A8FA0A200490FFF76CFBF1
:101590009DF827000C21069100F09EFA0520089086
:1015A000FFF762FB9DF827003C21019100F094FABF
:1015B0000498FFF759FB9DF827003821029100F0AD
:1015C0008BFA01200790FFF739FB03999DF827005C
:1015D00000F082FA0498FFF747FB06999DF8270070
:1015E00000F07AFA0898FFF73FFB01999DF8270071
:1015F00000F072FA0498FFF737FB02999DF8270074
:1016000000F06AFA0798FFF719FB03999DF8270085
:1016100000F062FA0498FFF727FB06999DF827006F
:1016200000F05AFA0898FFF71FFB01999DF8270070
:1016300000F052FA0498FFF717FB02999DF8270073
:1016400000F04AFA0798FFF7F9FA03999DF8270086
:1016500000F042FA0498FFF707FB06999DF827006F
:1016600000F03AFA0898FFF7FFFA9DF827002C21BE
:10167000059100F031FA0498FFF7F6FA9DF827007B
:10168000282100F029FA05999DF82700FFF7C6FEEA
:101690000898FFF7D3FA06999DF82700FFF7BEFEDA
:1016A0000898FFF7CBFA07999DF82700FFF7B6FED9
:1016B0000898FFF7C3FA9DF827000221FFF7AEFE56
:1016C0000898FFF7BBFA0AB080BD000080B584B06F
:1016D0008DF80F008DF80E108DF80D20029300206C
:1016E000ADF806009DF80E00012804D1FFE7802028
:1016F000ADF8060009E09DF80E00022804D1FFE7CE
:10170000C020ADF80600FFE7FFE79DF80F00BDF829
:1017100006109DF80D201144C9B2FFF77FFE64202A
:10172000FFF7A2FA9DF80F00029900F003F804B049
:1017300080BD000080B584B08DF80F0002910020BC
:101740000190FFE702980199405C70B1FFE79DF8B6
:101750000F000299019A895CFFF7B2FE01980130EF
:1017600001906420FFF780FAECE704B080BD000030
:1017700080B59EB000200E901D90FFF729F800F074
:10178000B5F8FFF7EBFD00F0E3F815200C90FFF73C
:10179000E9FE32200D90FFF751FA1620FEF776FD94
:1017A0000C980121FFF73AFE0D98FFF747FA0E98C3
:1017B000119010900F90FFE740F20A00C2F2000073
:1017C0000078012876D1FFE740F27000C2F20000F5
:1017D0000078002860D1FFE769460FA8886010A84C
:1017E000486011A8086016201CA91BAA1AABFEF7B6
:1017F0009FFD43F64003C0F600031520012100229F
:101800000B92FFF763FF1C9801F04EFD0B9A4FF00F
:101810008043089300F004FA069007911B9801F0AA
:1018200043FD089B0B9A00F0FBF9024606980B4615
:10183000079900F043FF09900A911A9801F034FDCE
:10184000089B0B9A00F0ECF9024609980B460A999E
:1018500000F034FF00F0DAFE0B9A0023C4F2180304
:1018600001F0CCFDA0B9FFE71A9801F01DFD21F0B1
:10187000004100220023C4F2080301F0BFFD38B983
:10188000FFE740F27001C2F2000101200870FFE79B
:101890003220FFF7D3F90CE03220FFF7CFF943F6FF
:1018A0003003C0F60003152001210022FFF70EFFD0
:1018B000FFE719E040F27001C2F20001002005903C
:1018C0000870152001210491FFF7A8FD6420FFF79F
:1018D000B5F90498059A0321FFF7BAFA0498059A16
:1018E0000421FFF7B5FAFFE766E7000080B584B092
:1018F00072B64EF21001CEF200010291002001906A
:10190000086040F20000C2F2000000684DF68361FA
:10191000C4F21B31A0FB0110800C4EF21401CEF278
:10192000000108604FF0FF3003900F21FFF732F9FC
:101930000199029A03984EF21803CEF2000319603F
:1019400007211160FFF7D4F862B604B080BD000033
:1019500080B584B041F21C0CC4F2020CDCF800002B
:1019600040F00400CCF8000040F20001C2F2000197
:10197000086844F6D352C1F26202A0FB02034FF0A2
:10198000FF3000EB931340F6280EC4F2000EAEF8C1
:10199000003040F62C0EC4F2000E42F20F73AEF887
:1019A000003040F60C0EC4F2000EBEF8003043F0DA
:1019B0000103AEF8003040F6000EC4F2000EBEF88F
:1019C000003043F00103AEF80030DCF8003043F0A3
:1019D0000203CCF800300968A1FB022100EB911052
:1019E00040F22841C4F20001088040F22C41C4F2C8
:1019F000000141F28730088040F20C41C4F200013E
:101A0000088840F00100088040F20041C4F2000163
:101A1000088840F0010008801E200190FFF780F840
:101A2000019801210391FFF7D7F81D200290FFF7DD
:101A300077F802980399FFF7CFF804B080BD000053
:101A400080B582B040F20800C2F20000007868B1B0
:101A5000FFE70120042100220192FFF7F9F9019824
:101A600040F20801C2F2000108700CE004210122DA
:101A700000921046FFF7ECF9009840F20801C2F21C
:101A800000010870FFE702B080BD000080B582B0A1
:101A900040F20900C2F20000007868B1FFE70120BF
:101AA000032100220192FFF7D3F9019840F20901C6
:101AB000C2F2000108700CE00321012200921046DE
:101AC000FFF7C6F9009840F20901C2F20001087060
:101AD000FFE702B080BD000080B582B08DF807003E
:101AE0008DF806109DF80700FFF7DCFB9DF8070056
:101AF0000021FFF793F89DF807009DF80610FFF707
:101B0000A7FA9DF80700FFF705FC02B080BD490069
:101B100050EAC12018BF04204A0D18BF40F0010050
:101B200040F2FF72B2EB515F08BF40F002000128A3
:101B300008BF052070472DE9F0414F1E00EBC7019B
:101B40000446D1E9000115461E4637F006020DD0C5
:101B50002A46334601F094F87F1E04EBC703D3E90D
:101B6000002300F0ABFD37F00602F1D1022F25D0A3
:101B7000042F13D0062F18BFBDE8F0812A46334644
:101B800001F07EF8D4E90A2300F098FD2A46334696
:101B900001F076F8D4E9082300F090FD2A46334698
:101BA00001F06EF8D4E9062300F088FD2A4633469A
:101BB00001F066F8D4E9042300F080FD2A4633469C
:101BC00001F05EF8D4E9022300F078FD2A4633469E
:101BD00001F056F8D4E90023BDE8F04100F06EBDF5
:101BE000002213461046014900F024BE0000F03FD9
:101BF00000F064BD002213461046114600F01ABEE4
:101C000040F2013200204FF0E04101F078BD0000C9
:101C1000024A0020110701F072BD000001FDFFFF24
:101C20002DE9F04D1D460C4694B0174621F00041B9
:101C300023F00043002814BF4FF0010C4FF0000CBC
:101C40000CEB440CFB4A0CEB02064FEA620C6645B7
:101C50002BD33E0018BF012606EB45061644F64A74
:101C6000964222D3F54A53EA070C02D0944205D19A
:101C700048B914B000201146BDE8F08D002808BF17
:101C80004FF0000C01D04FF0010C0CEB440212F5A8
:101C9000001F0AD8002F14BF4FF0010C4FF0000CAA
:101CA0000CEB450212F5001F07D914B03A462B463B
:101CB0002146BDE8F04DFFF79BBF0022DFF880A36F
:101CC000002CB8BF534526DADFF878C36345A8BFB8
:101CD000022220DADFF864C39C451CDCDFF868C30D
:101CE0000CEB235CBCF1140F08DDCCF1340627FAB1
:101CF00006FC0CFA06F6BE420DD108E05FB9CCF145
:101D0000140623FA06FC0CFA06F69E4203D10CF0E8
:101D10000102C2F1020251EA000C19D1002D17DABA
:101D2000002C18BF022A01D0012A07D00220FEF79A
:101D300069FA14B0BDE8F04DFFF752BF0220FEF77C
:101D400061FAFFF74DFF14B081F00041BDE8F08D5E
:101D5000B7F1000C6CD1534525D104F1804212F546
:101D6000801201BF00280020B44914B008BFBDE8AC
:101D7000F08DB248884207DC002DA1BF604629469D
:101D800014B0BDE8F08D07E0002DBFBF604685F0C0
:101D9000004114B0BDE8F08DAC497944D1E90001AF
:101DA00014B0BDE8F08DDFF894C2634525D1002D55
:101DB0001FDA19B1514512D1D8B909E0002840F015
:101DC000F6829F4A214614B062F31E01BDE8F08DF1
:101DD0000020214614B060F31E01BDE8F08D08DA42
:101DE00014B02346BDE8F04D02460020614600F0E5
:101DF00021BD14B02146BDE8F08D514518DAB5F18A
:101E0000804F0DD0A5F1005CBCF1FF5C10D1B4F1A6
:101E1000000C0DDB14B06146BDE8F04D00F0F6BBE0
:101E2000234614B00246BDE8F04D194600F028BF25
:101E3000060024F0004C3BD1D9B1514533D1002CE0
:101E400006DD002DA1BF0020514614B0BDE8F08D85
:101E5000002C01DD002D1BDB002C13DA002D11DB23
:101E6000012A4FF0000014BF7549794914B0BDE84C
:101E7000F08D022A18BF002C0AD0012A08D1002CAC
:101E800006DA0AE0002CB8BF002D11DA012A04D0CE
:101E9000002014B00146BDE8F08D14B000204FF0D2
:101EA0000041BDE8F08DA1F14050B0F17F601AD043
:101EB000012000EBE47050EA020421D05F4C521E76
:101EC0004FF0000B104304BF4FF0000B614C624811
:101ED00083427DDD614A6248934229DD884217DBF7
:101EE000002D2FDB41E0002C00DA4AB1022A0CBFA2
:101EF00001204FF0FF3014B0BDE8F04D00F030BECF
:101F00000120FEF77FF914B0BDE8F04DFFF772BE77
:101F10004A4A8A420CDC002D14DC0220FEF772F9DA
:101F2000FFF776FE61F31E0414B02146BDE8F08D84
:101F3000814202DA002D18DA04E0404B994220DD9C
:101F4000002D12DD0220FEF75DF9FFF759FE054670
:101F50000E46002253465846214600F091FE14B02A
:101F600066F31E012846BDE8F08D0220FEF74AF90F
:101F7000FFF74EFE0A46214614B062F31E01BDE88B
:101F8000F08D00223046614601F0A0F806468846F2
:101F90006FF0010201F0B3FB4FF05532314B00F00E
:101FA000A3FF3246434600F06BFE00222E4B00F0AA
:101FB0009BFF8A463246434602901046194600F07F
:101FC0005FFE5346029A00F05BFE8246324600E016
:101FD00054E0059143464FF0C040244900F050FEC4
:101FE000CDE90C01224A214B5046059900F048FEEC
:101FF000824601911F4A204B3046414600F040FE88
:102000005246019B01F062F882460B460246099156
:10201000DDE90C0100F052FBDDE90C2300268846C7
:10202000304601F053F85246099B00F05DFF02462E
:1020300000F07EB9FFFF1F00FFFF0F000000F03F20
:102040000000F07F0000404301FCFFFF7A1A00000F
:102050000000F0FF0000F0BF0000E0410000F0438E
:10206000FFFFEF3F5555D53F0000E03F4715F73FD5
:10207000FE822B6544DF5DF80BAE543E0020B1F5C7
:10208000801F07DA35223046614601F038FB0646EC
:102090006FF0340000EB2150A0F2FF300190C1F34B
:1020A000130040F07F6141F040510291FE498842A7
:1020B000D8BF002004DDFD498142C8BF012001DDF9
:1020C0000F9008E000200F900198401C01900298AA
:1020D000A0F5801002900299F548784405910F9977
:1020E00000EBC1001290D0E900233046059900F0C2
:1020F000EDFFCDE90C011298D0E900233046059997
:1021000000F0DCFA02460B460020EA4900F092FBA0
:102110000B46CDE908010246DDE90C0100F0B0FDF7
:102120000A90E5488A464FF0000878440299006812
:1021300010904FF0005040EA61010F9801EB804091
:1021400000F5002112981191D0E90023109800F0B9
:10215000BDFF3246059B00F0C7FE4246534600F0E5
:102160008FFDDDE91023064603914046514600F0FD
:1021700087FDDDE90C2300F0B7FE3246039B00F03B
:10218000A5FFDDE9082300F07BFD03910A9A129078
:1021900053461046194600F073FD06460246C748EE
:1021A0000B46029106217844FFF7C5FC029B32469C
:1021B000059108901046194600F062FD059B089AAB
:1021C00000F05EFD064609915346404619460A9ABC
:1021D00000F074FA039B129A00F052FD3246099BFC
:1021E00000F06CFACDE90801424653461046194604
:1021F00000F046FD02460B46029104900020B049D3
:1022000000F05CFADDE9082300F058FA0E46424679
:10221000AB4B404600F05AFF029B049A00F056FF79
:10222000DDE9082300F060FE424604910290334647
:102230001046514600F024FDCDE90C0153460A9AA0
:102240000499029800F01CFD8246009133464246F4
:102250000399129800F014FD5246009B00F02EFAEC
:1022600082460B4602460991DDE90C0100F026FA90
:10227000DDE90C2300268846304600F027FF524651
:10228000099B00F031FECDE90801434632464FF08C
:1022900060408C4900F0F4FC82460491DDE90801BD
:1022A000894A884B00F0ECFC02910090434632468C
:1022B0008648874900F0E4FC029B009A00F0FEF992
:1022C000844B7B440F9A03EBC203D3E9002300F055
:1022D000F5F900900291019800F042FC0E900391F4
:1022E0005046029B009A049900F0E8F97A4A7A4431
:1022F0000F9B02EBC3030993D3E9002300F0DEF93F
:10230000039B0E9A00F0DAF988463046039B0E9A3A
:1023100000F0DCFE099BD3E9002300F0D7FE524613
:10232000049B00F0D3FE029B009A00F0DDFD024604
:1023300000200B4602903846294600F0A1FC824658
:1023400003912B4638461946029A00F0BFFE3246EA
:10235000434600F095FC5246039B00F0AFF9074658
:102360008A46324643462946029800F089FC0546D3
:102370000E463A46534600F0A1F9584A8846914223
:1023800021DBA8EB020353EA000210D12A463346B0
:1023900000F09CFECDE90310514A524B384651469D
:1023A00000F08CF9DDE9033200F068FD21D2022053
:1023B000FDF728FFFFF724FC0A46214614B062F31C
:1023C0001E01BDE8F08D484B28F000429A4210D320
:1023D000464A08EB020353EA00027FF4C6AD2A46E0
:1023E000334600F073FE3A46534600F047FD7FF651
:1023F000BCAD0022019228F000403D493D4A01EB6E
:102400002051824223DA481C4FF4801121FA00F057
:102410004044394AC0F30A517A44384BA1F2FF31A3
:10242000CB4020EA0303C0F3130040F48010C1F155
:102430001401C84012680190B8F1000FBCBF4042BF
:1024400001902846314600F041FE05460E462A46D8
:1024500033463846514600F031F94FF00008424605
:10246000274B4046039100F00BFCCDE90C01254AB7
:10247000254B4046039900F003FC029100902A4648
:1024800033464046039900F021FE3A46534600F099
:102490002BFD1E4A1E4B00F0F3FB029B009A00F03E
:1024A0000DF90746884635E08E9803007AB60B0092
:1024B000B21600000000F03FEA16000016160000F9
:1024C0000000084009C7EE3FFD033ADCF5015B144C
:1024D000E02F3EBEEA140000AE1400000000904061
:1024E000FE822B654715973C00CC904000346F3F2F
:1024F00001FCFFFF0000E03FFC130000FFFF0F00A6
:10250000432EE63F396CA80C615C20BEEF39FAFE21
:10251000422EE63F02460B46DDE90C0100F0CEF804
:10252000DDE90C2305460E4600F0D0FD3A46434651
:1025300000F0DAFC07462A46334605911046194654
:1025400000F09EFB824602462E4888460B46052137
:102550007844FFF7F0FA5246434600F091FB2A46D2
:10256000334600F0C1FC80468A463A46284631464A
:10257000059B00F085FB3A46059B00F09FF805910E
:10258000009000224FF080434046514600F09EFDEF
:1025900007460391424653462846314600F070FBF9
:1025A0003A46039B00F046F9059B009A00F08EFD29
:1025B0002A46334600F08AFD0022134B00F094FCBB
:1025C000054601980E4601EB00510815002810DC65
:1025D00028463146019A01F092F8FFF798FA04284C
:1025E00008BFFFF715FB28463146019A01F087F82E
:1025F00005460B4614B02A4658462146BDE8F04D24
:1026000000F03EBB9C1200000000F03F2DE9F041BD
:1026100006460F4600F074FC041E0D4618BF01204C
:10262000284320F00040C0F17F6000F1E040C00F7F
:102630000ED0301C18BF0120384320F00040C0F1FC
:102640007F6000F1E040C00F04BF0120FDF7DAFD1C
:1026500020462946BDE8F08121F0004201F0004308
:10266000A2F16052B2F5801F28BFD2F17F6C0BD966
:102670005FEA001C43EAC20242EB507018BF704789
:1026800028BF20F001007047B2F5801FBCBF18467C
:1026900070474FEA410C1CF5001F02D2084600F0BB
:1026A00082BF70B500F096FB00000089FFF7F6BF0F
:1026B0004FF00040A0F580007047000010B591EA8F
:1026C000030F48BF83F0004300F10885841A71EBC3
:1026D000030C05D2121943EB0C03001B61EB0C0138
:1026E0004FEA1154A4EB135CDFF81CE11EEA430F20
:1026F00018BF9EEA445F00F0748021EA045123EA87
:102700000E0343F48013DCF1200E32D322FA0CFEC8
:1027100010EB0E0023FA0CFE41EB0E01CCF1200E63
:1027200003FA0EFE10EB0E00CCF1200E51F1000169
:10273000B1F5801F32D201EB045112FA0EF2BDE85E
:10274000104058BF7047401C38BF5FEA420218BFB4
:102750007047002814BF20F0010041F100014FEA4A
:10276000410313F5001F38BF7047A1F1C04100F0CD
:102770007FBB012A43EB0302ACF1200CDCF11F0EFE
:1027800032BF4FF0000E23FA0CF310EB030041EBC5
:102790000451B4EB115FD0D0A1EB045101F58011CD
:1027A000490801EB04515FEA30000ED350F10000FC
:1027B00038BF12FA0EFE08D1BDE81040C9E7401C30
:1027C00038BF5FEA4202CAD1C3E7BDE810404FEA12
:1027D000410313F5001F38BF7047A1F1C04100F05D
:1027E00047BB9EEA445F08D011EA5E0FBDE8104087
:1027F00004BF01F0004100207047BDE8104070B5F3
:1028000000F0E8FA64FBBE3E0000E0FF02494FF032
:10281000000000F042BF00BF0000F87F491058BF21
:10282000C1F140415B1058BFC3F140438B42EFF30D
:10283000008070472DE9C04130B4DFF8A4C23CEA03
:10284000111418BF3CEA131400F0ED801CEA1114B7
:1028500081EA030544EAD57418BF1CEA131500F099
:10286000C880A4EB050404F17F7404F500344FF034
:10287000004545EAC12145EAC32341EA505143EAF4
:1028800052534FEAC0204FEAC222994208BF9042F9
:1028900000F09D804FEA13650FF24416765D4FEA13
:1028A000134506FB05F7C7F1807706FB07F74FEAEC
:1028B000D737A7FB03687642A7FB06CEC8F580385A
:1028C00038BFA8F1010807FB08E6A6FB028C4FF011
:1028D000000EE6FB03CEDCF1000CCEF1004E38BF5B
:1028E000AEF1010EA6FB0C584FF00007E6FB0E8779
:1028F000A1FB08C6A0FB07CE16EB0E064FF00005A5
:1029000045F10005E1FB076515F1E04E7EBFA4F53A
:1029100080345FEA46066D4116F1800745F10005F7
:102920004FEA172747EA05674FEA15254FEA06667B
:10293000A6F1DE46B6F1805F20D9384605EBC471BA
:1029400024F0010C01EB0C11BCF1FE6F02D8F0BCBD
:10295000BDE8008124425CBF01F5801E9EEAC47F71
:1029600002D4F0BCBDE80081244200F13980A1F11D
:10297000C041F0BCBDE8004100F07ABA4FEAD02077
:1029800040EA41504FEAD1214FEAD22242EA435273
:102990004FEAD323A7FB028607FB036605FB02660B
:1029A0001EEA0E0F58BFA6EB0056B6EB00564FEAD4
:1029B000520E4EEAC37E18EB0E0E56EB530EBCD5EC
:1029C00018EB02085E417F1C55F10005B5E74FF496
:1029D00080154FF000074FF000064FF00008ACE7FD
:1029E00001F1C04101F000414FF00000F0BCBDE832
:1029F00000810CEA131511EA0C1F00D00CE013EA59
:102A00000C1F00F026804FF0000081EA030101F066
:102A10000041F0BCBDE80081F0BCBDE8004181EAA6
:102A2000030100F025BAF0BCBDE8004170B500F02C
:102A3000D1F900BF097EFC3E00F007B84FF000005E
:102A400081EA030101F00041704781EA030100F0CF
:102A50000FBAF0BCBDE8004122494FF000007047BA
:102A6000FFFDFBF9F7F5F4F2F0EEEDEBE9E8E6E453
:102A7000E3E1E0DEDDDBDAD8D7D5D4D3D1D0CFCDDA
:102A8000CCCBCAC8C7C6C5C4C2C1C0BFBEBDBCBB13
:102A9000BAB9B8B7B6B5B4B3B2B1B0AFAEADACAB0E
:102AA000AAA9A8A8A7A6A5A4A3A3A2A1A09F9F9EE8
:102AB0009D9C9C9B9A99999897979695959493939A
:102AC000929191908F8F8E8E8D8C8C8B8B8A898931
:102AD00088888787868585848483838282818180B4
:102AE0000000FF070000F87F51EA030C17D41CF523
:102AF000801F58BFBCF5801F00F10680994218BFA7
:102B0000704708BF9042704707D711F5801F58BF24
:102B100013F5801F19D499427047894270471CF5FC
:102B2000801F08D5BCF5801FF7D58B4218BF7047B2
:102B300008BF824270474FF4001C1CEB410F38BFA6
:102B40001CEB430F01D28B42704770B500F042F985
:102B5000922449004FF000514FF08053FFF75EBEC2
:102B600010F0004248BF4042B0FA80F310FA03F17F
:102B70000AD0C3F11D0303F5806302EB03524FEA51
:102B8000415002EBD12170474FF000007047000028
:102B900051EA030C17D41CF5801F58BFBCF5801FE9
:102BA00000F10680994218BF704708BF90427047F5
:102BB00007D711F5801F58BF13F5801F19D499420C
:102BC0007047894270471CF5801F08D5BCF5801FEF
:102BD000F7D58B4218BF704708BF824270474FF449
:102BE000001C1CEB410F38BF1CEB430F01D28B4282
:102BF000704770B500F0EEF8922449004FF0805114
:102C00004FF00053FFF70ABE51EA030C17D41CF52E
:102C1000801F58BFBCF5801F00F10680994218BF85
:102C2000704708BF9042704707D711F5801F58BF03
:102C300013F5801F19D499427047894270471CF5DB
:102C4000801F08D5BCF5801FF7D58B4218BF704791
:102C500008BF824270474FF4001C1CEB410F38BF85
:102C60001CEB430F01D28B42704770B500F0B2F8F5
:102C7000922449004FF000514FF08053FFF7CEBD32
:102C800070B5DFF848C11CEA111E1EBF1CEA1315FF
:102C90009EEA0C0F95EA0C0F00F06F8081EA0304A6
:102CA0004EEAD47EAE4421EA4C1123EA4C1341F49F
:102CB000801143F48013AEF17F7EA1FB024CA0FB98
:102CC0000365361955EB0C05A1FB034C4CF10003D1
:102CD000A0FB021C16EB0C06654153F100030942F0
:102CE00018BF46F0010613F4007F0BD14FEA033101
:102CF0004FEA053041EA155140EA165034036FF0AF
:102D000003020AE04FEAC3214FEAC52041EA5551C8
:102D100040EA5650F4026FF0020202EB2E4201EB41
:102D2000025585EACE710AD05FEA440C18BF24F040
:102D3000004450F1000041F1000120EAD47040F25B
:102D4000FE7C624500D270BDA84214BF4FF08044A3
:102D50004FF04044002E08BF0024BEF1806FA8BF92
:102D6000A1F1C041BDE8704080F2828001F1C04114
:102D700001F000414FF0000070470CEA13159EEA85
:102D80000C0F18BF95EA0C0F06D081EA030E4FF026
:102D900000000EF0004170BD00F01CF88900013EFB
:102DA00000F007B800F009B84FEA430C5FEA5C5C3A
:102DB00008D081EA030100F05BB84FEA410C5FEAFA
:102DC0005C5CF6D102494FF0000070470000FF073D
:102DD0000000F87F0EF1020E2EF0030E5EF8046B79
:102DE000364205D4012A43EB030515F5001F12D81E
:102DF000012841EB010C1CF5001F0CD80ED14FEA45
:102E0000D17C0CEB4C0C0CF1020C15F5001F08BF2B
:102E10004CEBD37C04E04FF0080C01E04FEAD37C8C
:102E20000CEB4C0526FA05F606F00706B6F1040C85
:102E300006D20EEB860CBDE870404CF0010C6047EA
:102E4000DFE80CF0090B02024FF00041A1F5002170
:102E50004FF0000070BD19461046012851EB0104E7
:102E600018BFD4F5001484BF002001F0004170BDEC
:102E70000808A0F500114FEA3101704753EA010C30
:102E800017D41CF5801F58BFBCF5801F00F10680C9
:102E90008B4218BF704708BF8242704707D713F5AF
:102EA000801F58BF11F5801F19D48B4270479B4279
:102EB00070471CF5801F08D5BCF5801FF7D59942D7
:102EC00018BF704708BF904270474FF4001C1CEBBE
:102ED000430F38BF1CEB410F01D2994270470FB42A
:102EE0000CBC03BCFFF7C1BE10B591EA030F81F023
:102EF00000413FF5EBAB83F0004300F0EFB800007A
:102F00002DE9F04101F5801CBCF5001FC0F2C38023
:102F10004FEA115C21EA0C5141F480110CF1FD0CD7
:102F20005FEA5C0C0CF5C07C01D34000494189028A
:102F300041EA905187023BA48E0EA45D0A0C04FB6B
:102F400004F602FB06F6C6F14046A4FB0662F60D47
:102F500046EA422606FB06F4A4FB01235242C3F1D3
:102F6000404338BF5B1EA6FB02420024E6FB03245D
:102F7000D20B42EA4446A6FB0623A1FB02E2A3FBD6
:102F800007E4A4184FF0000252F10002E3FB0142F3
:102F90006442C2F1404E38BFAEF1010EA6FB0423DD
:102FA0004FF00002E6FB0E32A2FB0346B6194FF0CB
:102FB000000454F10004E2FB0264A1FB06E6A4FB5A
:102FC00007E816EB08064FF0000858F10008E4FB8C
:102FD00001687642C8F1405838BFA8F10108A2FB49
:102FE00006E4A3FB08E52D194FF0000454F100049A
:102FF000E2FB0854A1FB05E6A7FB04E818EB060872
:103000004FF0000656F10006E1FB048618F120059A
:1030100056F10006A80940EA8660B109A8F11B082C
:1030200008F03F08B8F10A0F1CD901EB0C51BDE8BC
:10303000F08100BFFCF5EEE8E2DDD8D3CFCBC7C30B
:10304000C0BDB9B6B4B1AEACA9A7A5A3A19F9D9BC5
:103050009A9896959392908F8D8C8B898887868588
:1030600084838281A0FB006800FB01F208EB420828
:10307000B8EB872807D5341858EB0104D5D5401C88
:1030800051F10001D1E7341A78EB0104CDD4401E90
:1030900071F10001C9E75FEA4C0C5FEA9C5C0DD15D
:1030A00005D301F000414FF00000BDE8F081BDE81C
:1030B000F04170B5FFF78EFE6DDBFFBEBDE8F0415D
:1030C00001494FF0000070470000F87F10B591EA09
:1030D000030F48BF83F000433FF5F8AA841A71EB51
:1030E000030C07D28CF0004C121943EB0C03001BAD
:1030F00061EB0C014FEA1154A4EB135CDFF8A4E17F
:103100001EEA430F18BF9EEA445F00F0B48021EA34
:10311000045123EA6E035242C3EB6E0338BF5B1EB9
:10312000DCF1200E25D322FA0CFE10EB0E0043FA40
:103130000CFE41EB0E01CCF1200E03FA0EFE10EB5B
:103140000E00CCF1200E51F1000129D401EB045105
:1031500012FA0EF2BDE8104058BF7047401C1CBF69
:10316000B2F1004F704700280CBF491C20F001004D
:10317000704712EB020E43EB030218BF4FF0010E33
:103180004EEA4202ACF1200CDCF11E0E56D943FA95
:103190000CFE10EB0E00CCF11E0E51F1FF31D5D517
:1031A0000EF1010E12FA0EFE404141EB010101EB5E
:1031B000445C5FEA5C5C10D901EB045110EBDE70FB
:1031C00038BFBEF1004FBDE8104018BF704700285F
:1031D0000CBF491C20F00100704734D24FEAD42CB8
:1031E00024F4006411F500111BD0B1FA81F20B3AFE
:1031F000A41AA41ED2F12003914030FA03F319431C
:10320000904001EBCC7101EB0451002CBDE8104063
:10321000A8BF704701F1C04101F000414FF000002C
:103220007047B0FA80F310FA03F102D1BDE8104004
:103230007047E41A173C4805C90AE2E701EB04515C
:10324000BDE81040704749104FEA300001EB0451CF
:10325000BDE8104002E04FF0000170474A0008BF8F
:103260000042F8D0B2F5001F28BF704701F00041BE
:103270004FF0000070479EEA445F07D011EA5E0FEE
:10328000BDE8104004BF002100207047BDE8104099
:1032900070B5FFF79FFD00BF40DFF63E104683F09C
:1032A000004170470000E0FF43004FEAD30C4FEAB3
:1032B0003C0C43401FBF40070CF1605113F0FE4F20
:1032C00070471CF0006F03D10CF0004100207047E4
:1032D0000CF0004343EA507040EACC0010B500F017
:1032E0001CF900BF000000924FEA0001FFF7C0BDCB
:1032F0004FF00041A1F500214FF0000070470000A1
:1033000090EA010F48BF81F0004100F15881421A54
:103310003CBF801A89184FEAD052A2EBD1534FF02C
:103320007F4C1CEA410F18BF9CEA026F00F03B8003
:103330004FF0004C4CEA00204CEA012121FA03FC3A
:1033400010EB0C0C1ED202F1FF325FEA1C2040EBA6
:10335000C25038BF70471CF07F0F4FEA400C18BFB7
:10336000BCF17F4F38BF7047C3F12003994008BFBD
:1033700020F00100BCF17F4F38BF7047A0F1C04082
:1033800000F011B94FEA3C00000A40EBC25028BFE0
:103390001CF0FF0F4FEA400CE6D018BFBCF17F4F86
:1033A00038BF7047EAE79CEA026F05D010EA5C0F6D
:1033B00008BF00F00040704710B500F0AEF800BF45
:1033C00064FBBE3E10B5FFF78FFB0CBF0120002051
:1033D00010BD10B5FFF788FB14BF0120002010BD01
:1033E00010B5FFF7D5FB8CBF0120002010BD10B534
:1033F000FFF7CEFB2CBF0120002010BD10B5FFF75A
:1034000003FC94BF0120002010BD10B5FFF7FCFBAA
:1034100034BF0120002010BD4FF47F0C1CEAD012F5
:103420001EBF1CEAD11392EA0C0F93EA0C0F00F0B6
:10343000478090EA010F48BF42F480724FF0004C81
:103440004CEA00204CEA012102EB0302A0FB01132D
:10345000A2F50002002918BF43F001035B0028BF5A
:103460004FEA330342EB22425FEA132C4CEBC2508B
:103470002EBFBCEB436FB2F57C0F70474FEA036C75
:10348000BCF1004F08BF20F00100B2F57C0F38BF3F
:1034900070470BD582F0FF0212F5803FC8BF70471E
:1034A00000F1C040D8BF00F00040704700F5000CAC
:1034B0005FEA4C0C48BF7047B0F1C04000F073B8F1
:1034C0000CEAD11390EA010F48BF42F480726245C2
:1034D00038BF634504D280EA010000F00040704725
:1034E00010B500F01AF800BF8900013E00F007B8DF
:1034F00000F009B85FEA410C5FEA1C6C08D080EA72
:10350000010000F050B85FEA400C5FEA1C6CF6D195
:103510004FF00040A0F5800070470EF1020E2EF033
:10352000030E5EF8044B244204D44FEA4102B2F188
:103530007F4F11D84FEA4003B3F17F4F0CD80ED123
:103540004FEAD07C0CEB4C0C0CF1020CB2F17F4F2B
:1035500008BF4CEBD17C04E04FF0080C01E04FEACF
:10356000D17C0CEB4C0324FA03F404F00704B4F10F
:10357000040C06D20EEB840CBDE810404CF0010C9C
:103580006047DFE80CF0070802024FF00040A0F5AA
:10359000800010BD0846420018BFD2F1807288BF7B
:1035A00000F0004010BDFF2141EAD050C005704737
:1035B00090EA010F48BF81F000413FF5A8AE421AE2
:1035C00004D882F00042A0EB020011444FEAD0522E
:1035D000A2EBD1534FF07F4C1CEA410F18BF9CEA7D
:1035E000026F4AD04FF0004C4CEA00204CEA012117
:1035F00021FA03FCB0EB0C0C0FD412F0FE0F36D006
:103600005FEA4C001DD5001240EBC25038BF704736
:103610001CF03F0F18BF70470BE05FEA1C20A2F1BF
:10362000010240EBC25038BF70471CF07F0F18BF3B
:103630007047C3F12003994014BF401E20F00100E1
:1036400070474FEA1223800808BF7047B0FA80FC29
:10365000A2EB0C02CCF1280C60FA0CF093EA122FCA
:1036600004BF00EBC25070474FEAC3707047130AA3
:103670005FEADC1008BF7047F6E79CEA026F04D0EF
:1036800010EA5C0F08BF0020704710B5FFF745FF38
:1036900040DFF63E81F0004070470CF00F03092B2D
:1036A00008BF082000F059800A2B0BD0082B18BF48
:1036B000704708BF1CF0400F0AD04FF000004FF0D9
:1036C000000170471CF0400F18BF4FF000407047DA
:1036D0001CF0100F08D000F07F4220F0704342EA47
:1036E000D3014FEA4370704700F0604021F07F4201
:1036F00042EA000201F07F4040EA727070474FF0EA
:10370000FF0C4CF4E06C1CEA11531CBF9CEA030C48
:103710009445C2BFDA4201EB02517047002B0DD035
:10372000BCF1000F0FD001F00041002AA4BF41F00E
:10373000E04141F07F614FF00000704701F000412F
:103740004FF00000704750EA01334FF09B0C18BF58
:103750004CF0806C7FF45AA870471CF4801F11D085
:103760001CF4E02F03D06FEACC31490070474FF0D2
:103770004050EFF3008222F0704242EA000282F3EE
:10378000008870474FF00000704700000000000004
:10379000000000000000F03F000000000000F83FC3
:1037A00000000000000000000000004003B8E23FFD
:1037B000000000000000000006D0CF43EBFD4C3EAF
:1037C000033333333333E33FFFAB6FDBB66DDB3FA4
:1037D0004D268F515555D53F01411DA96074D13FEC
:1037E00065DBC9934A86CD3FEF4E454A287ECA3FE6
:1037F0003E5555555555C53F93BDBE166CC166BF68
:103800002CDE25AF6A56113FF16BD2C541BDBBBE60
:10381000D0A4BE726937663E0000000000000000C0
:103820000000000000000000010203040607080970
:103830002020202020206E676120202020202000D2
:10384000202042696E68207468756F6E67202000C2
:1038500070380008000000200C0000005001000833
:103860007C38000810000020680600007001000885
:0C38700000A24A04295C4F3F0101010046
:04000005080001B539
:00000001FF
